:100000000C9434000C9446000C9446000C9446006A
:100010000C9446000C9446000C9446000C94460048
:100020000C9446000C94B3040C9446000C944600C7
:100030000C9446000C9448000C9446000C94460026
:100040000C9446000C9446000C9446000C94460018
:100050000C9446000C9446000C9446000C94460008
:100060000C9446000C94460011241FBECFEFD4E040
:10007000DEBFCDBF11E0A0E0B1E001C01D92A33111
:10008000B107E1F70E94AC040C94E5040C94000065
:100090001F920F920FB60F9211248F939F9387EFA9
:1000A00092EC909385008093840091E090930501F9
:1000B00080910D01882319F490930D0102C01092D4
:1000C0000D0180910E018F5F80930E018C3309F535
:1000D00010920E01809111018F5F809311018C337A
:1000E000C1F410921101809112018F5F809312016F
:1000F0008C3051F480910F01813011F482E001C005
:1001000081E080930F0105C08D3019F481E0809368
:1001100012019F918F910F900FBE0F901F90189515
:10012000189B41C080910C01882309F041C02091A7
:100130001201809103012817C9F490911101809157
:100140000401981799F490910E0180910901981774
:1001500069F490910F0180910801981739F480910A
:100160000B01882319F481E080930C018091070131
:100170002817F1F490911101809106019817C1F4AC
:1001800090910E0180911001981791F490910F01B8
:1001900080910A01981761F480910B01813041F43C
:1001A00080930C01089510920C01109200012A987E
:1001B000089518B88BB180788BB90895982F8BB1BA
:1001C000847A8BB92B98633091F0643028F46130D5
:1001D00051F0623099F409C0653069F0653048F03B
:1001E000663061F40AC0589A09C0599A07C05C9AEF
:1001F00005C05E9A03C05B9A01C02B9A8FE388B951
:100200008BB184628BB99630A1F1973078F492303B
:1002100021F1933030F49923C9F0913009F040C0B6
:1002200018C0943001F1953008F51AC0993059F191
:100230009A3028F4973001F1983091F521C09B3025
:1002400059F19B3028F19C3059F528C088B1807D48
:100250001CC088B18B7D88B9089588B1867C15C093
:1002600088B1837C12C088B1897C08C088B1817E46
:100270000CC088B1807E09C088B1837D88B909C06F
:1002800088B1807C02C088B1817C88B95A98089571
:1002900042988BB18BB908955D980895429808955E
:1002A00018B808958EEC84B98FEF87B98FE78AB9B3
:1002B00081E385B984EA8BB98FE388B982E085BD93
:1002C00085E08093810021E020936F0087EF92EC1E
:1002D000909385008093840087E08093B100209301
:1002E000700010920C01789486E0809312018BE3E9
:1002F0008093110187E380930E0191E090930F01A9
:1003000087E08093030110920401109209019093F9
:1003100008018093070185E0809306011092100187
:1003200090930A0110920B0108959C01220F331F34
:1003300081E006C085BB16BCA89BFECF2050314093
:1003400091E021303907B0F781E085BB822F81959C
:1003500086BDA89BFECF0895CF93DF93EC0111C01B
:100360008AEF90E00E9495018AEF90E00E9495014B
:100370008AEF90E00E9495018AEF90E00E9495013B
:100380002197209769F7DF91CF9108950F931F93DD
:10039000CF93DF938C01C0E0D0E00BC029988CE2B2
:1003A00091E00E949501299A8CE291E00E949501CA
:1003B0002196C017D10794F3299882E390E00E9418
:1003C000AC01C0E0D0E00BC029988CE291E00E9423
:1003D0009501299A8CE291E00E9495012196C0171F
:1003E000D10794F32998DF91CF911F910F91089530
:1003F0000F931F93CF93DF938C01C0E0D0E060C0D8
:10040000809102018F5F80930201809103018A3005
:1004100050F06AE00E94D90461E00E94DE0082E3AD
:1004200090E00E949501809103016AE00E94D90446
:10043000892F62E00E94DE0082E390E00E94950135
:10044000809104016AE00E94D90463E00E94DE000A
:1004500082E390E00E949501809104016AE00E948D
:10046000D904892F64E00E94DE0082E390E00E94BC
:10047000950180910D01813041F48AE065E00E9490
:10048000DE0082E390E00E949501809108018130B6
:1004900071F4809102018A3050F0109202018CE0D8
:1004A00066E00E94DE0082E390E00E94950118B8A9
:1004B0008BB180788BB981E090E00E94AC012196ED
:1004C000C017D10708F49CCFDF91CF911F910F91F6
:1004D0000895EF92FF921F93CF93DF937C01C0E0CA
:1004E000D0E018E596C0809101018F5F80930101F3
:1004F000809112018A3050F06AE00E94D90461E0D4
:100500000E94DE0082E390E00E949501809112013A
:100510006AE00E94D904892F62E00E94DE0082E333
:1005200090E00E949501809111016AE00E94D90437
:1005300063E00E94DE0082E390E00E9495018091DA
:1005400011016AE00E94D904892F64E00E94DE0054
:1005500082E390E00E94950180910D01813041F489
:100560008AE065E00E94DE0082E390E00E9495014F
:10057000189B2CC08BE064E00E94DE0082E390E0D8
:100580000E94950180910C01813099F480910501C0
:10059000813079F418B88BB180788BB984EF91E011
:1005A0000E94C60110920501809100018F5F809327
:1005B000000180910001863088F02A9A8E3071F413
:1005C0001092000110920C012A9808C010920B01A1
:1005D00010930701109306011093100180910F01F1
:1005E000813071F480910101853050F01092010149
:1005F0008CE066E00E94DE0082E390E00E949501BC
:1006000018B88BB180788BB982E390E00E94950195
:100610002196CE15DF0508F466CFDF91CF911F91AB
:10062000FF90EF900895BF92CF92DF92EF92FF92EA
:100630000F931F934F9933C020910C01213079F50E
:1006400010920C0120930B01109200012A98109235
:10065000100190911101892F875F809306013091DD
:1006600012013093070140910F0140930A018C332E
:10067000B0F0935390930601832F8F5F809307010F
:100680008C3049F4413021F482E080930A0107C0A4
:1006900020930A0104C08D3011F42093070183B127
:1006A000807309F0A3C088EE93E00E94AC0183B18F
:1006B000807329F09BC088EE93E00E94690283B1A9
:1006C0008073C9F3FF24EE24E39410E001E0A2E07C
:1006D000DA2EFBE3BF2EECE0CE2E4F9913C000E0E4
:1006E0008AEF90E00E94690218B88BB180788BB9CC
:1006F0008AEF90E00E94AC010F5F033089F74F9BB7
:10070000FECF78C01D9938C0153021F0FF24EE24AB
:10071000E3940DC0F39485E08F1548F4E3948EE1E3
:100720008E1520F4FF247EE1E72E01C0FF24809186
:1007300011018E0D809311018C33C8F08C5380937E
:100740001101809112018F5F809312018D3011F49D
:1007500000931201809112018C3049F480910F01B5
:10076000813019F4D0920F0102C000930F0184E68A
:1007700090E00E94AC0115E01C99AFCF143021F03D
:10078000FF24EE24E3940DC0F39485E08F1548F424
:10079000E3948EE18E1520F4FF246EE1E62E01C075
:1007A000FF24809111018E19809311018D33C0F0C7
:1007B000B09211018091120181508093120188231F
:1007C00011F4C0921201809112018B3049F4809192
:1007D0000F01813019F4D0920F0102C000930F0174
:1007E00084E690E00E94AC0114E077CFFF24EE2471
:1007F000E39410E04F99A8C01092700088EE93E047
:100800000E94F8014F999DC0109270000CC018B85A
:100810008BB180788BB98AEF90E00E94AC018AEFAF
:1008200090E00E94F8014F9BF2CF01E052E0D52EFC
:100830004BE3B42E3CE0C32E84E690E00E94F80126
:100840004F9913C010E08AEF90E00E94F80118B8A9
:100850008BB180788BB98AEF90E00E94AC011F5F6A
:10086000143089F74F9BFECF6CC01D9934C01530F2
:1008700021F0FF24EE24E3940DC0F39485E08F155E
:1008800048F4E3948EE18E1520F4FF242EE1E22E4D
:1008900001C0FF24809104018E0D809304018C33EC
:1008A000C8F08C5380930401809103018F5F809383
:1008B00003018D3011F400930301809103018C300A
:1008C00049F480910801813019F4D092080102C0E6
:1008D0000093080115E01C99AFCF143021F0FF24DC
:1008E000EE24E3940DC0F39485E08F1548F4E3946F
:1008F0008EE18E1520F4FF249EE1E92E01C0FF2435
:10090000809104018E19809304018D33C0F0B09260
:10091000040180910301815080930301882311F425
:10092000C0920301809103018B3049F4809108014A
:10093000813019F4D092080102C00093080114E03C
:100940007BCF81E0809370001F910F91FF90EF901B
:10095000DF90CF90BF9008950E9452010E94130330
:100960000E949000FBCF1F920F920FB60F9211249E
:100970002F933F934F935F936F937F938F939F93A7
:10098000AF93BF93EF93FF938AE090E00E946902D8
:10099000FF91EF91BF91AF919F918F917F916F9157
:1009A0005F914F913F912F910F900FBE0F901F902D
:1009B0001895991B79E004C0991F961708F0961BAB
:0E09C000881F7A95C9F780950895F894FFCFA7
:00000001FF
